{
  "contractName": "MedicineSupplyChain",
  "abi": [
    {
      "anonymous": false,
      "inputs": [
        {
          "indexed": false,
          "internalType": "string",
          "name": "medicineId",
          "type": "string"
        },
        {
          "indexed": false,
          "internalType": "string",
          "name": "name",
          "type": "string"
        }
      ],
      "name": "MedicineAdded",
      "type": "event"
    },
    {
      "anonymous": false,
      "inputs": [
        {
          "indexed": false,
          "internalType": "address",
          "name": "participantId",
          "type": "address"
        },
        {
          "indexed": false,
          "internalType": "string",
          "name": "companyName",
          "type": "string"
        }
      ],
      "name": "ParticipantAdded",
      "type": "event"
    },
    {
      "inputs": [
        {
          "internalType": "string",
          "name": "_medicineId",
          "type": "string"
        },
        {
          "internalType": "string",
          "name": "_name",
          "type": "string"
        },
        {
          "internalType": "string",
          "name": "_batchNumber",
          "type": "string"
        },
        {
          "internalType": "string",
          "name": "_packageNumber",
          "type": "string"
        },
        {
          "internalType": "string",
          "name": "_genericName",
          "type": "string"
        },
        {
          "internalType": "string",
          "name": "_form",
          "type": "string"
        },
        {
          "internalType": "string",
          "name": "_dosage",
          "type": "string"
        },
        {
          "internalType": "string",
          "name": "_manufacturingDate",
          "type": "string"
        },
        {
          "internalType": "string",
          "name": "_expiringDate",
          "type": "string"
        },
        {
          "internalType": "string",
          "name": "_manufacturerCompany",
          "type": "string"
        },
        {
          "internalType": "string",
          "name": "_status",
          "type": "string"
        }
      ],
      "name": "addMedicine",
      "outputs": [],
      "stateMutability": "nonpayable",
      "type": "function"
    },
    {
      "inputs": [
        {
          "internalType": "string",
          "name": "_medicineId",
          "type": "string"
        }
      ],
      "name": "searchMedicine",
      "outputs": [
        {
          "components": [
            {
              "internalType": "string",
              "name": "name",
              "type": "string"
            },
            {
              "internalType": "string",
              "name": "batchNumber",
              "type": "string"
            },
            {
              "internalType": "string",
              "name": "packageNumber",
              "type": "string"
            },
            {
              "internalType": "string",
              "name": "genericName",
              "type": "string"
            },
            {
              "internalType": "string",
              "name": "form",
              "type": "string"
            },
            {
              "internalType": "string",
              "name": "dosage",
              "type": "string"
            },
            {
              "internalType": "string",
              "name": "manufacturingDate",
              "type": "string"
            },
            {
              "internalType": "string",
              "name": "expiringDate",
              "type": "string"
            },
            {
              "internalType": "string",
              "name": "manufacturerCompany",
              "type": "string"
            },
            {
              "internalType": "address",
              "name": "userID",
              "type": "address"
            },
            {
              "internalType": "string",
              "name": "status",
              "type": "string"
            }
          ],
          "internalType": "struct MedicineSupplyChain.Medicine",
          "name": "",
          "type": "tuple"
        }
      ],
      "stateMutability": "view",
      "type": "function",
      "constant": true
    },
    {
      "inputs": [
        {
          "internalType": "string",
          "name": "_medicineId",
          "type": "string"
        }
      ],
      "name": "checkMedicine",
      "outputs": [
        {
          "components": [
            {
              "internalType": "string",
              "name": "name",
              "type": "string"
            },
            {
              "internalType": "string",
              "name": "batchNumber",
              "type": "string"
            },
            {
              "internalType": "string",
              "name": "packageNumber",
              "type": "string"
            },
            {
              "internalType": "string",
              "name": "genericName",
              "type": "string"
            },
            {
              "internalType": "string",
              "name": "form",
              "type": "string"
            },
            {
              "internalType": "string",
              "name": "dosage",
              "type": "string"
            },
            {
              "internalType": "string",
              "name": "manufacturingDate",
              "type": "string"
            },
            {
              "internalType": "string",
              "name": "expiringDate",
              "type": "string"
            },
            {
              "internalType": "string",
              "name": "manufacturerCompany",
              "type": "string"
            },
            {
              "internalType": "address",
              "name": "userID",
              "type": "address"
            },
            {
              "internalType": "string",
              "name": "status",
              "type": "string"
            }
          ],
          "internalType": "struct MedicineSupplyChain.Medicine",
          "name": "",
          "type": "tuple"
        }
      ],
      "stateMutability": "view",
      "type": "function",
      "constant": true
    },
    {
      "inputs": [
        {
          "internalType": "address",
          "name": "_participantId",
          "type": "address"
        },
        {
          "internalType": "string",
          "name": "_companyName",
          "type": "string"
        },
        {
          "internalType": "string",
          "name": "_status",
          "type": "string"
        }
      ],
      "name": "addParticipant",
      "outputs": [],
      "stateMutability": "nonpayable",
      "type": "function"
    },
    {
      "inputs": [
        {
          "internalType": "string",
          "name": "_medicineId",
          "type": "string"
        }
      ],
      "name": "getMedicineHistory",
      "outputs": [
        {
          "internalType": "string[]",
          "name": "",
          "type": "string[]"
        }
      ],
      "stateMutability": "view",
      "type": "function",
      "constant": true
    }
  ],
  "bytecode": "0x608060405234801561001057600080fd5b50611bf1806100206000396000f3fe608060405234801561001057600080fd5b50600436106100575760003560e01c806307e9c66d1461005c57806324bae1481461007857806338180bc614610094578063777dde25146100c4578063950db27f146100f4575b600080fd5b610076600480360381019061007191906113cb565b610124565b005b610092600480360381019061008d919061148b565b6101f9565b005b6100ae60048036038101906100a9919061144a565b6104be565b6040516100bb919061199b565b60405180910390f35b6100de60048036038101906100d9919061144a565b610b01565b6040516100eb919061199b565b60405180910390f35b61010e6004803603810190610109919061144a565b611144565b60405161011b9190611942565b60405180910390f35b6000604051806040016040528084815260200183815250905080600160008673ffffffffffffffffffffffffffffffffffffffff1673ffffffffffffffffffffffffffffffffffffffff168152602001908152602001600020600082015181600001908051906020019061019992919061123b565b5060208201518160010190805190602001906101b692919061123b565b509050507f54d9fcf3da31043daf69e0a8ad35eaf7cfae552733f792dc3d95805eb45bfec284846040516101eb929190611912565b60405180910390a150505050565b60006040518061016001604052808c81526020018b81526020018a81526020018981526020018881526020018781526020018681526020018581526020018481526020013373ffffffffffffffffffffffffffffffffffffffff1681526020018381525090508060008d60405161027091906118fb565b9081526020016040518091039020600082015181600001908051906020019061029a92919061123b565b5060208201518160010190805190602001906102b792919061123b565b5060408201518160020190805190602001906102d492919061123b565b5060608201518160030190805190602001906102f192919061123b565b50608082015181600401908051906020019061030e92919061123b565b5060a082015181600501908051906020019061032b92919061123b565b5060c082015181600601908051906020019061034892919061123b565b5060e082015181600701908051906020019061036592919061123b565b5061010082015181600801908051906020019061038392919061123b565b506101208201518160090160006101000a81548173ffffffffffffffffffffffffffffffffffffffff021916908373ffffffffffffffffffffffffffffffffffffffff16021790555061014082015181600a0190805190602001906103e992919061123b565b5090505060028c6040516103fd91906118fb565b908152602001604051809103902080600181540180825580915050600190039060005260206000200160006040518060400160405280600e81526020017f4d65646963696e652061646465640000000000000000000000000000000000008152509091909150908051906020019061047692919061123b565b507fb240792397c98bae0b265108904f33d2fbaf45816fbe0b68abdd14f7dec73ff18c8c6040516104a8929190611964565b60405180910390a1505050505050505050505050565b6104c66112c1565b6000826040516104d691906118fb565b90815260200160405180910390206040518061016001604052908160008201805461050090611b03565b80601f016020809104026020016040519081016040528092919081815260200182805461052c90611b03565b80156105795780601f1061054e57610100808354040283529160200191610579565b820191906000526020600020905b81548152906001019060200180831161055c57829003601f168201915b5050505050815260200160018201805461059290611b03565b80601f01602080910402602001604051908101604052809291908181526020018280546105be90611b03565b801561060b5780601f106105e05761010080835404028352916020019161060b565b820191906000526020600020905b8154815290600101906020018083116105ee57829003601f168201915b5050505050815260200160028201805461062490611b03565b80601f016020809104026020016040519081016040528092919081815260200182805461065090611b03565b801561069d5780601f106106725761010080835404028352916020019161069d565b820191906000526020600020905b81548152906001019060200180831161068057829003601f168201915b505050505081526020016003820180546106b690611b03565b80601f01602080910402602001604051908101604052809291908181526020018280546106e290611b03565b801561072f5780601f106107045761010080835404028352916020019161072f565b820191906000526020600020905b81548152906001019060200180831161071257829003601f168201915b5050505050815260200160048201805461074890611b03565b80601f016020809104026020016040519081016040528092919081815260200182805461077490611b03565b80156107c15780601f10610796576101008083540402835291602001916107c1565b820191906000526020600020905b8154815290600101906020018083116107a457829003601f168201915b505050505081526020016005820180546107da90611b03565b80601f016020809104026020016040519081016040528092919081815260200182805461080690611b03565b80156108535780601f1061082857610100808354040283529160200191610853565b820191906000526020600020905b81548152906001019060200180831161083657829003601f168201915b5050505050815260200160068201805461086c90611b03565b80601f016020809104026020016040519081016040528092919081815260200182805461089890611b03565b80156108e55780601f106108ba576101008083540402835291602001916108e5565b820191906000526020600020905b8154815290600101906020018083116108c857829003601f168201915b505050505081526020016007820180546108fe90611b03565b80601f016020809104026020016040519081016040528092919081815260200182805461092a90611b03565b80156109775780601f1061094c57610100808354040283529160200191610977565b820191906000526020600020905b81548152906001019060200180831161095a57829003601f168201915b5050505050815260200160088201805461099090611b03565b80601f01602080910402602001604051908101604052809291908181526020018280546109bc90611b03565b8015610a095780601f106109de57610100808354040283529160200191610a09565b820191906000526020600020905b8154815290600101906020018083116109ec57829003601f168201915b505050505081526020016009820160009054906101000a900473ffffffffffffffffffffffffffffffffffffffff1673ffffffffffffffffffffffffffffffffffffffff1673ffffffffffffffffffffffffffffffffffffffff168152602001600a82018054610a7890611b03565b80601f0160208091040260200160405190810160405280929190818152602001828054610aa490611b03565b8015610af15780601f10610ac657610100808354040283529160200191610af1565b820191906000526020600020905b815481529060010190602001808311610ad457829003601f168201915b5050505050815250509050919050565b610b096112c1565b600082604051610b1991906118fb565b908152602001604051809103902060405180610160016040529081600082018054610b4390611b03565b80601f0160208091040260200160405190810160405280929190818152602001828054610b6f90611b03565b8015610bbc5780601f10610b9157610100808354040283529160200191610bbc565b820191906000526020600020905b815481529060010190602001808311610b9f57829003601f168201915b50505050508152602001600182018054610bd590611b03565b80601f0160208091040260200160405190810160405280929190818152602001828054610c0190611b03565b8015610c4e5780601f10610c2357610100808354040283529160200191610c4e565b820191906000526020600020905b815481529060010190602001808311610c3157829003601f168201915b50505050508152602001600282018054610c6790611b03565b80601f0160208091040260200160405190810160405280929190818152602001828054610c9390611b03565b8015610ce05780601f10610cb557610100808354040283529160200191610ce0565b820191906000526020600020905b815481529060010190602001808311610cc357829003601f168201915b50505050508152602001600382018054610cf990611b03565b80601f0160208091040260200160405190810160405280929190818152602001828054610d2590611b03565b8015610d725780601f10610d4757610100808354040283529160200191610d72565b820191906000526020600020905b815481529060010190602001808311610d5557829003601f168201915b50505050508152602001600482018054610d8b90611b03565b80601f0160208091040260200160405190810160405280929190818152602001828054610db790611b03565b8015610e045780601f10610dd957610100808354040283529160200191610e04565b820191906000526020600020905b815481529060010190602001808311610de757829003601f168201915b50505050508152602001600582018054610e1d90611b03565b80601f0160208091040260200160405190810160405280929190818152602001828054610e4990611b03565b8015610e965780601f10610e6b57610100808354040283529160200191610e96565b820191906000526020600020905b815481529060010190602001808311610e7957829003601f168201915b50505050508152602001600682018054610eaf90611b03565b80601f0160208091040260200160405190810160405280929190818152602001828054610edb90611b03565b8015610f285780601f10610efd57610100808354040283529160200191610f28565b820191906000526020600020905b815481529060010190602001808311610f0b57829003601f168201915b50505050508152602001600782018054610f4190611b03565b80601f0160208091040260200160405190810160405280929190818152602001828054610f6d90611b03565b8015610fba5780601f10610f8f57610100808354040283529160200191610fba565b820191906000526020600020905b815481529060010190602001808311610f9d57829003601f168201915b50505050508152602001600882018054610fd390611b03565b80601f0160208091040260200160405190810160405280929190818152602001828054610fff90611b03565b801561104c5780601f106110215761010080835404028352916020019161104c565b820191906000526020600020905b81548152906001019060200180831161102f57829003601f168201915b505050505081526020016009820160009054906101000a900473ffffffffffffffffffffffffffffffffffffffff1673ffffffffffffffffffffffffffffffffffffffff1673ffffffffffffffffffffffffffffffffffffffff168152602001600a820180546110bb90611b03565b80601f01602080910402602001604051908101604052809291908181526020018280546110e790611b03565b80156111345780601f1061110957610100808354040283529160200191611134565b820191906000526020600020905b81548152906001019060200180831161111757829003601f168201915b5050505050815250509050919050565b606060028260405161115691906118fb565b9081526020016040518091039020805480602002602001604051908101604052809291908181526020016000905b828210156112305783829060005260206000200180546111a390611b03565b80601f01602080910402602001604051908101604052809291908181526020018280546111cf90611b03565b801561121c5780601f106111f15761010080835404028352916020019161121c565b820191906000526020600020905b8154815290600101906020018083116111ff57829003601f168201915b505050505081526020019060010190611184565b505050509050919050565b82805461124790611b03565b90600052602060002090601f01602090048101928261126957600085556112b0565b82601f1061128257805160ff19168380011785556112b0565b828001600101855582156112b0579182015b828111156112af578251825591602001919060010190611294565b5b5090506112bd9190611331565b5090565b604051806101600160405280606081526020016060815260200160608152602001606081526020016060815260200160608152602001606081526020016060815260200160608152602001600073ffffffffffffffffffffffffffffffffffffffff168152602001606081525090565b5b8082111561134a576000816000905550600101611332565b5090565b600061136161135c846119ee565b6119bd565b90508281526020810184848401111561137957600080fd5b611384848285611ac1565b509392505050565b60008135905061139b81611ba4565b92915050565b600082601f8301126113b257600080fd5b81356113c284826020860161134e565b91505092915050565b6000806000606084860312156113e057600080fd5b60006113ee8682870161138c565b935050602084013567ffffffffffffffff81111561140b57600080fd5b611417868287016113a1565b925050604084013567ffffffffffffffff81111561143457600080fd5b611440868287016113a1565b9150509250925092565b60006020828403121561145c57600080fd5b600082013567ffffffffffffffff81111561147657600080fd5b611482848285016113a1565b91505092915050565b60008060008060008060008060008060006101608c8e0312156114ad57600080fd5b60008c013567ffffffffffffffff8111156114c757600080fd5b6114d38e828f016113a1565b9b505060208c013567ffffffffffffffff8111156114f057600080fd5b6114fc8e828f016113a1565b9a505060408c013567ffffffffffffffff81111561151957600080fd5b6115258e828f016113a1565b99505060608c013567ffffffffffffffff81111561154257600080fd5b61154e8e828f016113a1565b98505060808c013567ffffffffffffffff81111561156b57600080fd5b6115778e828f016113a1565b97505060a08c013567ffffffffffffffff81111561159457600080fd5b6115a08e828f016113a1565b96505060c08c013567ffffffffffffffff8111156115bd57600080fd5b6115c98e828f016113a1565b95505060e08c013567ffffffffffffffff8111156115e657600080fd5b6115f28e828f016113a1565b9450506101008c013567ffffffffffffffff81111561161057600080fd5b61161c8e828f016113a1565b9350506101208c013567ffffffffffffffff81111561163a57600080fd5b6116468e828f016113a1565b9250506101408c013567ffffffffffffffff81111561166457600080fd5b6116708e828f016113a1565b9150509295989b509295989b9093969950565b600061168f838361172a565b905092915050565b6116a081611a8f565b82525050565b6116af81611a8f565b82525050565b60006116c082611a2e565b6116ca8185611a51565b9350836020820285016116dc85611a1e565b8060005b8581101561171857848403895281516116f98582611683565b945061170483611a44565b925060208a019950506001810190506116e0565b50829750879550505050505092915050565b600061173582611a39565b61173f8185611a62565b935061174f818560208601611ad0565b61175881611b93565b840191505092915050565b600061176e82611a39565b6117788185611a73565b9350611788818560208601611ad0565b61179181611b93565b840191505092915050565b60006117a782611a39565b6117b18185611a84565b93506117c1818560208601611ad0565b80840191505092915050565b60006101608301600083015184820360008601526117eb828261172a565b91505060208301518482036020860152611805828261172a565b9150506040830151848203604086015261181f828261172a565b91505060608301518482036060860152611839828261172a565b91505060808301518482036080860152611853828261172a565b91505060a083015184820360a086015261186d828261172a565b91505060c083015184820360c0860152611887828261172a565b91505060e083015184820360e08601526118a1828261172a565b9150506101008301518482036101008601526118bd828261172a565b9150506101208301516118d4610120860182611697565b506101408301518482036101408601526118ee828261172a565b9150508091505092915050565b6000611907828461179c565b915081905092915050565b600060408201905061192760008301856116a6565b81810360208301526119398184611763565b90509392505050565b6000602082019050818103600083015261195c81846116b5565b905092915050565b6000604082019050818103600083015261197e8185611763565b905081810360208301526119928184611763565b90509392505050565b600060208201905081810360008301526119b581846117cd565b905092915050565b6000604051905081810181811067ffffffffffffffff821117156119e4576119e3611b64565b5b8060405250919050565b600067ffffffffffffffff821115611a0957611a08611b64565b5b601f19601f8301169050602081019050919050565b6000819050602082019050919050565b600081519050919050565b600081519050919050565b6000602082019050919050565b600082825260208201905092915050565b600082825260208201905092915050565b600082825260208201905092915050565b600081905092915050565b6000611a9a82611aa1565b9050919050565b600073ffffffffffffffffffffffffffffffffffffffff82169050919050565b82818337600083830152505050565b60005b83811015611aee578082015181840152602081019050611ad3565b83811115611afd576000848401525b50505050565b60006002820490506001821680611b1b57607f821691505b60208210811415611b2f57611b2e611b35565b5b50919050565b7f4e487b7100000000000000000000000000000000000000000000000000000000600052602260045260246000fd5b7f4e487b7100000000000000000000000000000000000000000000000000000000600052604160045260246000fd5b6000601f19601f8301169050919050565b611bad81611a8f565b8114611bb857600080fd5b5056fea26469706673582212203175e438a187f1bd86d02d95ac6b1996143acd49c9f2e9c8b16625cfa502ad3c64736f6c63430008000033",
  "immutableReferences": {},
  "source": "// SPDX-License-Identifier: MIT\npragma solidity ^0.8.0;\n\ncontract MedicineSupplyChain {\n\n    // Structure for a Medicine\n    struct Medicine {\n        string name;\n        string batchNumber;\n        string packageNumber;\n        string genericName;\n        string form;\n        string dosage;\n        string manufacturingDate;\n        string expiringDate;\n        string manufacturerCompany;\n        address userID;  // Address of the user who added the medicine\n        string status;\n    }\n\n    // Structure for a Participant\n    struct Participant {\n        string companyName;\n        string status;\n    }\n\n    // Mapping for storing medicines\n    mapping(string => Medicine) private medicines;\n    // Mapping for storing participants\n    mapping(address => Participant) private participants;\n    // Mapping for storing medicine history\n    mapping(string => string[]) private medicineHistory;\n\n    // Event to be emitted when a medicine is added\n    event MedicineAdded(string medicineId, string name);\n\n    // Event to be emitted when a participant is added\n    event ParticipantAdded(address participantId, string companyName);\n\n    // Add a new medicine\n    function addMedicine(\n        string memory _medicineId,\n        string memory _name,\n        string memory _batchNumber,\n        string memory _packageNumber,\n        string memory _genericName,\n        string memory _form,\n        string memory _dosage,\n        string memory _manufacturingDate,\n        string memory _expiringDate,\n        string memory _manufacturerCompany,\n        string memory _status\n    ) public {\n        Medicine memory newMedicine = Medicine({\n            name: _name,\n            batchNumber: _batchNumber,\n            packageNumber: _packageNumber,\n            genericName: _genericName,\n            form: _form,\n            dosage: _dosage,\n            manufacturingDate: _manufacturingDate,\n            expiringDate: _expiringDate,\n            manufacturerCompany: _manufacturerCompany,\n            userID: msg.sender,  // Storing the address of the user who added the medicine\n            status: _status\n        });\n\n        medicines[_medicineId] = newMedicine;\n        medicineHistory[_medicineId].push(\"Medicine added\");\n\n        emit MedicineAdded(_medicineId, _name);\n    }\n\n    // Search for a medicine by its ID\n    function searchMedicine(string memory _medicineId) public view returns (Medicine memory) {\n        return medicines[_medicineId];\n    }\n\n    // Check medicine information\n    function checkMedicine(string memory _medicineId) public view returns (Medicine memory) {\n        return medicines[_medicineId];\n    }\n\n    // Add a new participant\n    function addParticipant(address _participantId, string memory _companyName, string memory _status) public {\n        Participant memory newParticipant = Participant({\n            companyName: _companyName,\n            status: _status\n        });\n\n        participants[_participantId] = newParticipant;\n\n        emit ParticipantAdded(_participantId, _companyName);\n    }\n\n    // Get medicine history\n    function getMedicineHistory(string memory _medicineId) public view returns (string[] memory) {\n        return medicineHistory[_medicineId];\n    }\n}\n",
  "sourcePath": "/Users/rabby/Desktop/GUB/fakeMedicineDetection/smart-contract/contracts/SupplyChain.sol",
  "compiler": {
    "name": "solc",
    "version": "0.8.0+commit.c7dfd78e.Emscripten.clang"
  },
  "schemaVersion": "3.4.16",
  "updatedAt": "2024-06-26T05:14:27.929Z",
  "networkType": "ethereum",
  "devdoc": {
    "kind": "dev",
    "methods": {},
    "version": 1
  },
  "userdoc": {
    "kind": "user",
    "methods": {},
    "version": 1
  }
}