{
  "contractName": "SupplyChain",
  "abi": [
    {
      "anonymous": false,
      "inputs": [
        {
          "indexed": true,
          "internalType": "uint256",
          "name": "medicineId",
          "type": "uint256"
        },
        {
          "indexed": false,
          "internalType": "string",
          "name": "name",
          "type": "string"
        },
        {
          "indexed": false,
          "internalType": "string",
          "name": "batchNumber",
          "type": "string"
        },
        {
          "indexed": true,
          "internalType": "address",
          "name": "manufacturer",
          "type": "address"
        }
      ],
      "name": "MedicineAdded",
      "type": "event"
    },
    {
      "anonymous": false,
      "inputs": [
        {
          "indexed": true,
          "internalType": "uint256",
          "name": "medicineId",
          "type": "uint256"
        },
        {
          "indexed": true,
          "internalType": "address",
          "name": "seller",
          "type": "address"
        },
        {
          "indexed": false,
          "internalType": "uint256",
          "name": "receivedDate",
          "type": "uint256"
        }
      ],
      "name": "MedicineReceived",
      "type": "event"
    },
    {
      "inputs": [],
      "name": "medicineCount",
      "outputs": [
        {
          "internalType": "uint256",
          "name": "",
          "type": "uint256"
        }
      ],
      "stateMutability": "view",
      "type": "function",
      "constant": true
    },
    {
      "inputs": [
        {
          "internalType": "uint256",
          "name": "",
          "type": "uint256"
        }
      ],
      "name": "medicines",
      "outputs": [
        {
          "internalType": "string",
          "name": "name",
          "type": "string"
        },
        {
          "internalType": "string",
          "name": "batchNumber",
          "type": "string"
        },
        {
          "internalType": "address",
          "name": "manufacturer",
          "type": "address"
        },
        {
          "internalType": "address",
          "name": "seller",
          "type": "address"
        },
        {
          "internalType": "uint256",
          "name": "manufactureDate",
          "type": "uint256"
        },
        {
          "internalType": "uint256",
          "name": "receivedDate",
          "type": "uint256"
        }
      ],
      "stateMutability": "view",
      "type": "function",
      "constant": true
    },
    {
      "inputs": [
        {
          "internalType": "string",
          "name": "_name",
          "type": "string"
        },
        {
          "internalType": "string",
          "name": "_batchNumber",
          "type": "string"
        }
      ],
      "name": "addMedicine",
      "outputs": [],
      "stateMutability": "nonpayable",
      "type": "function"
    },
    {
      "inputs": [
        {
          "internalType": "uint256",
          "name": "_medicineId",
          "type": "uint256"
        }
      ],
      "name": "receiveMedicine",
      "outputs": [],
      "stateMutability": "nonpayable",
      "type": "function"
    },
    {
      "inputs": [
        {
          "internalType": "uint256",
          "name": "_medicineId",
          "type": "uint256"
        }
      ],
      "name": "getMedicineInfo",
      "outputs": [
        {
          "internalType": "string",
          "name": "",
          "type": "string"
        },
        {
          "internalType": "string",
          "name": "",
          "type": "string"
        },
        {
          "internalType": "address",
          "name": "",
          "type": "address"
        },
        {
          "internalType": "address",
          "name": "",
          "type": "address"
        },
        {
          "internalType": "uint256",
          "name": "",
          "type": "uint256"
        },
        {
          "internalType": "uint256",
          "name": "",
          "type": "uint256"
        }
      ],
      "stateMutability": "view",
      "type": "function",
      "constant": true
    }
  ],
  "bytecode": "0x608060405234801561001057600080fd5b50610eca806100206000396000f3fe608060405234801561001057600080fd5b50600436106100575760003560e01c80633fe7cff71461005c5780634dafd49014610078578063727cd48e146100965780638f4183cc146100cb578063c85e766d146100e7575b600080fd5b61007660048036038101906100719190610a42565b61011c565b005b610080610325565b60405161008d9190610c4e565b60405180910390f35b6100b060048036038101906100ab9190610a42565b61032b565b6040516100c296959493929190610b9f565b60405180910390f35b6100e560048036038101906100e091906109d6565b61056d565b005b61010160048036038101906100fc9190610a42565b61072a565b60405161011396959493929190610b9f565b60405180910390f35b600073ffffffffffffffffffffffffffffffffffffffff1660008083815260200190815260200160002060020160009054906101000a900473ffffffffffffffffffffffffffffffffffffffff1673ffffffffffffffffffffffffffffffffffffffff1614156101c1576040517f08c379a00000000000000000000000000000000000000000000000000000000081526004016101b890610c2e565b60405180910390fd5b600073ffffffffffffffffffffffffffffffffffffffff1660008083815260200190815260200160002060030160009054906101000a900473ffffffffffffffffffffffffffffffffffffffff1673ffffffffffffffffffffffffffffffffffffffff1614610265576040517f08c379a000000000000000000000000000000000000000000000000000000000815260040161025c90610c0e565b60405180910390fd5b3360008083815260200190815260200160002060030160006101000a81548173ffffffffffffffffffffffffffffffffffffffff021916908373ffffffffffffffffffffffffffffffffffffffff16021790555042600080838152602001908152602001600020600501819055503373ffffffffffffffffffffffffffffffffffffffff16817f5181eebc2a9847f518b4da62a85448acc57a59ce86c4b904b573575c8dc63fa84260405161031a9190610c4e565b60405180910390a350565b60015481565b60608060008060008060008060008981526020019081526020016000206040518060c001604052908160008201805461036390610d64565b80601f016020809104026020016040519081016040528092919081815260200182805461038f90610d64565b80156103dc5780601f106103b1576101008083540402835291602001916103dc565b820191906000526020600020905b8154815290600101906020018083116103bf57829003601f168201915b505050505081526020016001820180546103f590610d64565b80601f016020809104026020016040519081016040528092919081815260200182805461042190610d64565b801561046e5780601f106104435761010080835404028352916020019161046e565b820191906000526020600020905b81548152906001019060200180831161045157829003601f168201915b505050505081526020016002820160009054906101000a900473ffffffffffffffffffffffffffffffffffffffff1673ffffffffffffffffffffffffffffffffffffffff1673ffffffffffffffffffffffffffffffffffffffff1681526020016003820160009054906101000a900473ffffffffffffffffffffffffffffffffffffffff1673ffffffffffffffffffffffffffffffffffffffff1673ffffffffffffffffffffffffffffffffffffffff168152602001600482015481526020016005820154815250509050806000015181602001518260400151836060015184608001518560a001519650965096509650965096505091939550919395565b6001600081548092919061058090610d96565b91905055506040518060c001604052808381526020018281526020013373ffffffffffffffffffffffffffffffffffffffff168152602001600073ffffffffffffffffffffffffffffffffffffffff1681526020014281526020016000815250600080600154815260200190815260200160002060008201518160000190805190602001906106109291906108b6565b50602082015181600101908051906020019061062d9291906108b6565b5060408201518160020160006101000a81548173ffffffffffffffffffffffffffffffffffffffff021916908373ffffffffffffffffffffffffffffffffffffffff16021790555060608201518160030160006101000a81548173ffffffffffffffffffffffffffffffffffffffff021916908373ffffffffffffffffffffffffffffffffffffffff1602179055506080820151816004015560a082015181600501559050503373ffffffffffffffffffffffffffffffffffffffff166001547f1d6e6b4b5a6a24dd24bac881955a3c19bc259265284772af90fefb197f004bb8848460405161071e929190610b68565b60405180910390a35050565b600060205280600052604060002060009150905080600001805461074d90610d64565b80601f016020809104026020016040519081016040528092919081815260200182805461077990610d64565b80156107c65780601f1061079b576101008083540402835291602001916107c6565b820191906000526020600020905b8154815290600101906020018083116107a957829003601f168201915b5050505050908060010180546107db90610d64565b80601f016020809104026020016040519081016040528092919081815260200182805461080790610d64565b80156108545780601f1061082957610100808354040283529160200191610854565b820191906000526020600020905b81548152906001019060200180831161083757829003601f168201915b5050505050908060020160009054906101000a900473ffffffffffffffffffffffffffffffffffffffff16908060030160009054906101000a900473ffffffffffffffffffffffffffffffffffffffff16908060040154908060050154905086565b8280546108c290610d64565b90600052602060002090601f0160209004810192826108e4576000855561092b565b82601f106108fd57805160ff191683800117855561092b565b8280016001018555821561092b579182015b8281111561092a57825182559160200191906001019061090f565b5b509050610938919061093c565b5090565b5b8082111561095557600081600090555060010161093d565b5090565b600061096c61096784610c9a565b610c69565b90508281526020810184848401111561098457600080fd5b61098f848285610d22565b509392505050565b600082601f8301126109a857600080fd5b81356109b8848260208601610959565b91505092915050565b6000813590506109d081610e7d565b92915050565b600080604083850312156109e957600080fd5b600083013567ffffffffffffffff811115610a0357600080fd5b610a0f85828601610997565b925050602083013567ffffffffffffffff811115610a2c57600080fd5b610a3885828601610997565b9150509250929050565b600060208284031215610a5457600080fd5b6000610a62848285016109c1565b91505092915050565b610a7481610ce6565b82525050565b6000610a8582610cca565b610a8f8185610cd5565b9350610a9f818560208601610d31565b610aa881610e6c565b840191505092915050565b6000610ac0602583610cd5565b91507f4d65646963696e6520616c72656164792072656365697665642062792061207360008301527f656c6c65720000000000000000000000000000000000000000000000000000006020830152604082019050919050565b6000610b26601783610cd5565b91507f4d65646963696e6520646f6573206e6f742065786973740000000000000000006000830152602082019050919050565b610b6281610d18565b82525050565b60006040820190508181036000830152610b828185610a7a565b90508181036020830152610b968184610a7a565b90509392505050565b600060c0820190508181036000830152610bb98189610a7a565b90508181036020830152610bcd8188610a7a565b9050610bdc6040830187610a6b565b610be96060830186610a6b565b610bf66080830185610b59565b610c0360a0830184610b59565b979650505050505050565b60006020820190508181036000830152610c2781610ab3565b9050919050565b60006020820190508181036000830152610c4781610b19565b9050919050565b6000602082019050610c636000830184610b59565b92915050565b6000604051905081810181811067ffffffffffffffff82111715610c9057610c8f610e3d565b5b8060405250919050565b600067ffffffffffffffff821115610cb557610cb4610e3d565b5b601f19601f8301169050602081019050919050565b600081519050919050565b600082825260208201905092915050565b6000610cf182610cf8565b9050919050565b600073ffffffffffffffffffffffffffffffffffffffff82169050919050565b6000819050919050565b82818337600083830152505050565b60005b83811015610d4f578082015181840152602081019050610d34565b83811115610d5e576000848401525b50505050565b60006002820490506001821680610d7c57607f821691505b60208210811415610d9057610d8f610e0e565b5b50919050565b6000610da182610d18565b91507fffffffffffffffffffffffffffffffffffffffffffffffffffffffffffffffff821415610dd457610dd3610ddf565b5b600182019050919050565b7f4e487b7100000000000000000000000000000000000000000000000000000000600052601160045260246000fd5b7f4e487b7100000000000000000000000000000000000000000000000000000000600052602260045260246000fd5b7f4e487b7100000000000000000000000000000000000000000000000000000000600052604160045260246000fd5b6000601f19601f8301169050919050565b610e8681610d18565b8114610e9157600080fd5b5056fea2646970667358221220a02d221b0ce7524ce38e855d3bad9940722d3ccd0dfba0188ae94570c411cfd164736f6c63430008000033",
  "immutableReferences": {},
  "source": "// SPDX-License-Identifier: MIT\npragma solidity ^0.8.0;\n\ncontract SupplyChain {\n\n    struct Medicine {\n        string name;\n        string batchNumber;\n        address manufacturer;\n        address seller;\n        uint256 manufactureDate;\n        uint256 receivedDate;\n    }\n\n    mapping(uint256 => Medicine) public medicines;\n    uint256 public medicineCount;\n\n    event MedicineAdded(uint256 indexed medicineId, string name, string batchNumber, address indexed manufacturer);\n    event MedicineReceived(uint256 indexed medicineId, address indexed seller, uint256 receivedDate);\n\n    function addMedicine(string memory _name, string memory _batchNumber) public {\n        medicineCount++;\n        medicines[medicineCount] = Medicine(_name, _batchNumber, msg.sender, address(0), block.timestamp, 0);\n        emit MedicineAdded(medicineCount, _name, _batchNumber, msg.sender);\n    }\n\n    function receiveMedicine(uint256 _medicineId) public {\n        require(medicines[_medicineId].manufacturer != address(0), \"Medicine does not exist\");\n        require(medicines[_medicineId].seller == address(0), \"Medicine already received by a seller\");\n        medicines[_medicineId].seller = msg.sender;\n        medicines[_medicineId].receivedDate = block.timestamp;\n        emit MedicineReceived(_medicineId, msg.sender, block.timestamp);\n    }\n\n    function getMedicineInfo(uint256 _medicineId) public view returns (string memory, string memory, address, address, uint256, uint256) {\n        Medicine memory med = medicines[_medicineId];\n        return (med.name, med.batchNumber, med.manufacturer, med.seller, med.manufactureDate, med.receivedDate);\n    }\n}",
  "sourcePath": "/Users/rabby/Desktop/GUB/fakeMedicineDetection/smart-contract/contracts/SupplyChain.sol",
  "compiler": {
    "name": "solc",
    "version": "0.8.0+commit.c7dfd78e.Emscripten.clang"
  },
  "schemaVersion": "3.4.16",
  "updatedAt": "2024-06-26T02:07:58.754Z",
  "networkType": "ethereum",
  "devdoc": {
    "kind": "dev",
    "methods": {},
    "version": 1
  },
  "userdoc": {
    "kind": "user",
    "methods": {},
    "version": 1
  }
}